:1009E70048656172742062656174200050756C738C
:1009F700652E20002062706D20006F7574206F6671
:070A07002072616E676500BB
:03000300020A747A
:0D0A740085080E85090F7508007509003210
:03000B0002098067
:10098000C0E0C0D0758CDC050D0509E509700205D5
:1009900008C394ACE508940D40067508007509007D
:1009A000C3E50D9464748094804005050A750D00BC
:0509B000D0D0D0E032C0
:100800007580FF7590FF75A0FF75B0FFC2B6D2AFBF
:10081000758921D288D2A8D2A9D28C7FE87E031212
:100820000A6912093A7FE87E03120A697BFF7A0996
:1008300079E71209B57FDC7E05120A69120A65E4C0
:10084000F50BF50CF50EF50FC3E50A9401748094D1
:100850008040F5E4F50A7F02120A30C3E50F9407E1
:10086000E50E9400405AAC0EAD0F7E177F70120853
:10087000E58E0B8F0C120A657BFF7A0979F312095A
:10088000B5AE0BAF0C7D64120A0EAE0BAF0C7C0044
:100890007D641208E58C108D11AE10AF117D0A1227
:1008A0000A0EAE10AF117C007D0A1208E5ED24306F
:1008B000FF120A177BFF7A0979FB1209B502084873
:0C08C0007BFF7A0A79011209B502084892
:10093A007F647E00120A697F01120A30120A657FFB
:10094A0038120A30120A657F38120A30120A657F95
:10095A0038120A30120A657F06120A30120A657FB7
:10096A000C120A30120A657F03120A30120A657FD6
:06097A00F47E01020A698F
:100A3000C2B78FA07F647E00120A69D2B57F647E40
:100A400000120A69C2B57F647E00120A69D2B72219
:090A0E007C001208E5EF2430FF22
:100A1700D2B78FA07F0A7E00120A69D2B57F647EA3
:090A270000120A69C2B5C2B7222F
:040A65007FF47E019B
:0B0A6900EF1FAC0670011E4C70F6225F
:0609B5008B128A13891465
:1009BB00120A508F15751601E516D39515501CAB01
:1009CB0012AA13A9141208CCFF120A1774012514CA
:0B09DB00F514E43513F513051680DD5C
:0109E60022EE
:03000000020A8170
:0C0A8100787FE4F6D8FD758116020800AD
:1008CC00BB010689828A83E0225002E722BBFE022A
:0908DC00E32289828A83E493225D
:1008E500BC000BBE0029EF8DF084FFADF022E4CCF7
:1008F500F875F008EF2FFFEE33FEEC33FCEE9DECC0
:10090500984005FCEE9DFE0FD5F0E9E4CEFD22ED05
:10091500F8F5F0EE8420D21CFEADF075F008EF2F4F
:10092500FFED33FD4007985006D5F0F222C398FD40
:050935000FD5F0EA22DD
:100A5000E4FFFE1208CC600C0FEF70010E09E97084
:050A6000F20A80EF2204
:00000001FF
